:03000000020800F3
:0C080000787FE4F6D8FD758113020847EC
:10094A000A0A3F065B4F666D7D077F6F020800004B
:040906007F147E00DC
:10090A00E4FDFCC3ED9FEC9E5015E4FBFA0BBB0023
:0F091A00010ABA04F8BBFBF50DBD00010C80E427
:0109290022AB
:08095B00A2B04002D322C32226
:08096300A2B14002D322C3221D
:08096B00A2B24002D322C32214
:10092A00C3EE648094805003E4FEFFD3EF9409EE93
:10093A006480948040027F09740A2FF8E6F5A022A9
:10088C00D2B0D2B1D2B212095B50121209061209BF
:10089C005B500A12095B40FBE4F508F50912096389
:1008AC005021120906120963501912096340FBE525
:1008BC00099409E5086480948050080509E50970DD
:1008CC0002050812096B502212090612096B501A04
:1008DC0012096B40FBD3E5099400E5086480948011
:1008EC004008E509150970021508AF09AE08120990
:0A08FC002A7F647E0012090A808C36
:10080C0002088CE493A3F8E493A34003F68001F26E
:10081C0008DFF48029E493A3F85407240CC8C333ED
:10082C00C4540F4420C8834004F456800146F6DFBC
:10083C00E4800B010204081020408090094AE47EF9
:10084C00019360BCA3FF543F30E509541FFEE493B1
:10085C00A360010ECF54C025E060A840B8E493A378
:10086C00FAE493A3F8E493A3C8C582C8CAC583CAA3
:10087C00F0A3C8C582C8CAC583CADFE9DEE780BE5B
:01095A00009C
:00000001FF
